:020000040800F2
:1000000000100020191300080B0300080D0300085E
:1000100000000000000000000000000000000000E0
:100020000000000000000000000000000F030008B6
:100030000000000000000000110300081303000886
:1000400069130008691300086913000869130008A0
:100050006913000869130008691300086913000890
:100060000000000069130008691300086913000804
:100070006913000869130008691300086913000870
:100080006913000800000000000000006913000868
:1000900000000000691300086913000869130008D4
:1000A0000000000069130008000000006913000848
:1000B0000000000000000000000000000000000040
:1000C000002243088B4274D303098B425FD3030A97
:1000D0008B4244D3030B8B4228D3030C8B420DD3AA
:1000E000FF22090212BA030C8B4202D31212090238
:1000F00065D0030B8B4219D300E0090AC30B8B4276
:1001000001D3CB03C01A5241830B8B4201D38B0323
:10011000C01A5241430B8B4201D34B03C01A5241C8
:10012000030B8B4201D30B03C01A5241C30A8B420B
:1001300001D3CB02C01A5241830A8B4201D38B02F6
:10014000C01A5241430A8B4201D34B02C01A52419A
:10015000030A8B4201D30B02C01A5241CDD2C3090C
:100160008B4201D3CB01C01A524183098B4201D388
:100170008B01C01A524143098B4201D34B01C01A73
:10018000524103098B4201D30B01C01A5241C308EB
:100190008B4201D3CB00C01A524183088B4201D35A
:1001A0008B00C01A524143088B4201D34B00C01A46
:1001B0005241411A00D20146524110467047FFE7B2
:1001C00001B5002000F006F802BDC0460029F7D0B6
:1001D00076E770477047C0460448054B10B5834228
:1001E00003D0044B002B00D0984710BD0C0000201A
:1001F0000C0000200000000006480749091A8B1077
:10020000C90FC91810B5491003D0044B002B00D0FA
:10021000984710BD0C0000200C00002000000000DA
:1002200010B5074C2378002B09D1FFF7D5FF054BFC
:10023000002B02D0044800E000BF0123237010BD52
:100240000C00002000000000C4130008054B10B58E
:10025000002B03D00449054800E000BFFFF7CCFFA6
:1002600010BDC0460000000010000020C4130008AC
:1002700072B6FEE700B595B03022002108A801F063
:1002800074F81022002104A801F06FF81022002158
:10029000684601F06AF802230893013B0B930F3381
:1002A0000C9308A800F052F8002816D107230493F5
:1002B0000023059306930793002104A800F0BEFADB
:1002C00000280CD10123009300230293684600F01C
:1002D00065FB002805D115B000BDFFF7C9FFFFF78A
:1002E000C7FFFFF7C5FF10B500F010FCFFF7C2FF16
:1002F00000F098FF00F0BEFF90204021C00500F004
:10030000FDFCC82000F024FCF6E7FEE7FEE770479E
:10031000704710B500F00AFC10BD000082B00A4B17
:10032000996901221143996199690A400092009AE2
:10033000DA69802149050A43DA61DB690B400193E0
:10034000019B02B07047C0460010024070B582B0F9
:10035000041E00D12EE20368DB0726D5AE4B5A6897
:100360000C231340042B18D0AB4B5A680C231340BA
:10037000082B0ED06368012B3CD0002B51D1A64B2B
:100380001A68A6490A401A601A68A5490A401A6004
:1003900036E0A14B5B68DB03ECD59F4B1B689B03EE
:1003A00003D56368002B00D107E223689B0772D551
:1003B000994B5B680C221A425DD0974B5A680C230C
:1003C0001340082B53D0E368002B00D185E0924AFC
:1003D000136801210B43136000F0B4FB05008E4B42
:1003E0001B689B0770D400F0ADFB401B0228F6D9B8
:1003F0000320E0E1884A116880235B020B4313600D
:100400006368002B25D000F09DFB0500824B1B6824
:100410009B03CAD400F096FB401B6428F6D9032046
:10042000C9E1052B09D07C4B1A687C490A401A6047
:100430001A687B490A401A60E2E7774B1968802204
:10044000D2020A431A601968802252020A431A60D3
:10045000D6E700F077FB05006F4B1B689B03A4D524
:1004600000F070FB401B6428F6D90320A3E16A4B1F
:100470005B68DB03A7D4684B1B689B0703D5E36865
:10048000012B00D09BE164490B68F8229343226959
:10049000D20013430B6023681B0744D5E369002B8C
:1004A0002ED05D4A536A01210B43536200F04AFB90
:1004B0000500594B5B6A9B0735D400F043FB401B9A
:1004C0000228F6D9032076E153490B68F8229343BA
:1004D0002269D20013430B60DDE74F4A1368012104
:1004E0008B43136000F02EFB05004B4B1B689B07F2
:1004F000D1D500F027FB401B0228F6D903205AE192
:10050000454A536A01218B43536200F01BFB0500EF
:10051000414B5B6A9B0706D500F014FB401B022889
:10052000F6D9032047E123685B0700D480E03A4B0B
:10053000DB69DB001DD4384BDA69802149050A43A9
:10054000DA61DB690B400193019B0125354B1B6888
:10055000DB0510D5A368012B21D0002B36D12E4B03
:100560001A6A01218A431A621A6A03318A431A629B
:100570001AE00025EAE72B4A116880235B000B4351
:10058000136000F0DFFA0600264B1B68DB05E1D4A0
:1005900000F0D8FA801B6428F6D903200BE11E4A2C
:1005A000136A01210B431362A368002B24D000F0CF
:1005B000C9FA0600184B1B6A9B0737D400F0C2FA31
:1005C000801B194B9842F5D90320F4E0052B09D084
:1005D000114B1A6A01218A431A621A6A03318A434B
:1005E0001A62E1E70C4B1A6A04210A431A621A6A7A
:1005F00003390A431A62D7E700F0A4FA0600064B53
:100600001B6A9B0712D500F09DFA801B064B98428F
:10061000F5D90320CFE0C04600100240FFFFFEFFE7
:10062000FFFFFBFF0070004088130000012D33D056
:100630002368DB0610D56369012B33D0053351D114
:10064000654A536B04218B435363536BF4318B43E3
:10065000A169C9000B435363236A002B00D1B0E0AA
:100660005D4A51680C220A40082A00D18AE0022B18
:100670004FD0594A136859490B40136000F062FA91
:100680000400554B1B689B017AD500F05BFA001BF8
:100690000228F6D903208EE04F4AD36950490B4017
:1006A000D361C5E74C4B5A6B04210A435A635A6B1A
:1006B00003390A435A6300F045FA0500464B5B6B69
:1006C0009B0706D400F03EFA401B0228F6D903200F
:1006D00071E041494B6BF8229343A269D200134366
:1006E0004B63B9E73C4B5A6B04210A435A635A6B7C
:1006F00003398A435A6300F025FA0500364B5B6BD9
:100700009B07A9D500F01EFA401B0228F6D903204A
:1007100051E0314A136831490B40136000F012FA7E
:1007200005002D4B1B689B0106D500F00BFA401B02
:100730000228F6D903203EE0274BDA6A0F218A43CC
:10074000E16A0A43DA625A6826490A40A16A606A85
:1007500001430A435A601968802252040A431A600E
:1007600000F0F0F904001C4B1B689B0106D400F05C
:10077000E9F9001B0228F6D903201CE000201AE04A
:10078000002018E0012B1ED0134B5A68D86A802332
:100790005B021340616A8B4217D10F230340E16A69
:1007A0008B4214D1F0239B031A40A36A9A4210D1C2
:1007B000002000E0012002B070BD0120FBE7012015
:1007C000F9E70020F7E70120F5E70120F3E7012032
:1007D000F1E70120EFE7C04600100240FFFFFFFEF7
:1007E000FFFFFFEFFFFFC2FF10B5104B5A680C234D
:1007F0001340082B01D00E4810BD910C073319404F
:100800000C48445C0949C96A0B400B49C95CD203D6
:1008100004D50748FFF754FC6043EDE76201121B63
:1008200093019B1ADB001B191802E5E70010024038
:1008300000127A00EC130008DC13000870B5040005
:100840000D00002800D17EE0434B1A6801231340BD
:100850008B420AD240490B68012293432B430B6021
:100860000B681A40AA4200D06FE023689A070ED5A1
:100870005B0705D5394A5168E023DB000B43536021
:10088000364A5368F0218B43A1680B4353602368B9
:10089000DB072DD56368012B1ED0022B22D02F4AF7
:1008A0001268920753D52D494A68032082431343A7
:1008B0004B6000F047F90600284B5B680C221A4099
:1008C00063689B009A4213D000F03CF9801B244BD4
:1008D0009842F1D9032035E0204A12689203E2D40D
:1008E00001202FE01D4A12689201DCD4012029E08A
:1008F000194B1A6801231340AB4209D916490B68FA
:10090000012293432B430B600B681A40AA4220D16B
:1009100023685B0706D5114A536812490B40E1680A
:100920000B435360FFF760FF0C4B5A6812090F230B
:1009300013400D4AD35CD8400C4B1860032000F0E4
:10094000BDF8002070BD0120FCE70120FAE701207E
:10095000F8E70120F6E7C046002002400010024000
:1009600088130000FFF8FFFF0414000808000020AF
:10097000014B18687047C0460800002010B5FFF70B
:10098000F7FF044B5A68120A07231340024AD35C4C
:10099000D84010BD00100240FC13000870B582B0B2
:1009A00004000368DB0339D53E4BDB69DB004BD425
:1009B0003C4BDA69802149050A43DA61DB690B4067
:1009C0000193019B0125384B1B68DB053ED5354B58
:1009D0001A6AC0239B00110019401A4215D063689F
:1009E000C022920013408B420FD02E4B1A6A2F491F
:1009F00011401E6A8020400230431862186A2C4E53
:100A0000304018621962D20734D4264A136A274943
:100A10000B4061680B431362012D3AD02368DB075A
:100A200006D5204A136B03218B43A1680B43136344
:100A300023689B0632D51B4A136B10218B43E16858
:100A40000B43136300202AE00025BCE7164A116817
:100A500080235B000B43136000F074F80600124B18
:100A60001B68DB05B3D400F06DF8801B6428F6D951
:100A7000032014E000F066F806000A4B1B6A9B078F
:100A8000C3D400F05FF8801B0A4B9842F5D90320CD
:100A900005E0D36908490B40D361BFE7002002B0ED
:100AA00070BDC0460010024000700040FFFCFFFF18
:100AB000FFFFFEFF88130000FFFFFFEF10B50400EB
:100AC0000F4B1978FA208000FFF7FAFA01000D4B5E
:100AD0001868FFF7F5FA00F069F900280DD1032C2A
:100AE00001D901200AE0013000222100404200F03B
:100AF00059F9054B1C60002000E0012010BDC046E4
:100B000000000020080000200400002010B5064A64
:100B1000136810210B4313600320FFF7CFFFFFF78B
:100B2000FDFB002010BDC04600200240034A1168B2
:100B3000034B1B785B1813607047C04628000020E9
:100B400000000020014B18687047C04628000020B4
:100B500070B50400FFF7F6FF0500631C02D0044BDC
:100B60001B78E418FFF7EEFF401BA042FAD370BDDC
:100B700000000020F0B583B0002356E086685F00D7
:100B80000324BC40A643CC68BC4034438460446822
:100B900094434E683609012232409A402243426013
:100BA00053E0DE080836B600375805321A40920086
:100BB0000F249440A7430C69944022003A433250DA
:100BC00056E0022600E00026A64034003C430232F4
:100BD0009200424E9451424A9768EA433E00AE4327
:100BE0004C68E40201D53E002E433D4CA660E76808
:100BF0003E0016404C68A40201D53E002E43384CFE
:100C0000E66067683E0016404C68A40301D53E00CC
:100C10002E43334C6660266832404C68E40301D5AD
:100C20002A0032432E4C226001330C682200DA4045
:100C300051D001229A40250015401442F4D04E684C
:100C400003243440013C012C98D94C6803222240F3
:100C5000032A08D0C4685E000322B24094438A6825
:100C6000B2402243C2604C6803222240022A98D03C
:100C700004685E0003221700B740BC434F683A4047
:100C8000B240224302604C68C02292021442CBD090
:100C9000144CA66901221643A661A4692240019260
:100CA000019A9A08941CA4000C4EA75903241C40D6
:100CB000A4000F26A640B7439026F605B04282D086
:100CC000094EB04205D0094EB04200D179E7052661
:100CD0007AE7012678E703B0F0BDC0460000014086
:100CE00000040140001002400004004800080048D1
:100CF000002A01D0816170478162FCE742691300DC
:100D00000B401B0491430B438361704770B500286F
:100D100011DB8308134DC0339B005C590322104044
:100D2000C000FC3216008640B44389010A4082406C
:100D300022435A5170BD0F230340083B9B080633E2
:100D40009B00094A944663445C6803221040C0003B
:100D5000FC3215008540AC4389010A4082402243A1
:100D60005A60E7E700E100E000ED00E00138802391
:100D70005B0498420FD2094A50600948036A1B027B
:100D80001B0AC02109060B4303620023936007334B
:100D90001360002070470120FCE7C04610E000E02F
:100DA00000ED00E010B5FFF7B1FF10BD10B5FFF783
:100DB000DDFF10BD7047000010B5EFF3108C01226D
:100DC00082F3108801680B68124C23400B608CF38F
:100DD0001088EFF3108C82F3108801688B689343BE
:100DE0008B608CF31088036E012B06D080232022A9
:100DF000C25000230366836610BDEFF3108183F3B6
:100E00001088026813683234FF34A343136081F3FF
:100E10001088EBE7DFFEFFFF10B50400836802696E
:100E2000134342691343C269134301680A6848487F
:100E3000024013430B602268536846490B40E16847
:100E40000B435360A369226A1A4321688B684248A6
:100E5000034013438B60414B1A6B03231340022B57
:100E60000AD005D8002B16D0012B16D1033304E08D
:100E7000032B14D1013B00E00823E0698022120219
:100E800090420ED0042B58D039D8002B3ED0022BE4
:100E900033D133483EE00023EFE71023EDE7102382
:100EA000EBE7042B26D007D8002B09D0022B01D169
:100EB0002B4809E001203CE0082B05D0012038E058
:100EC000FFF75CFD00283BD0400061684B08C0186C
:100ED000FFF7F6F80200103A224B9A4232D882B25B
:100EE0000F239A434008083B034013432268D36012
:100EF00000201EE0FFF778FCE4E7012019E0082B52
:100F000002D18020000205E0012012E0FFF736FD4B
:100F1000002819D061684B081818FFF7D1F80200B3
:100F2000103A104B9A4211D823680004000CD86084
:100F300000200023A366E36610BDFFF755FCE7E73A
:100F40000020F6E70120F4E70020F2E70120F0E7B7
:100F5000F369FFFFFFCFFFFFFFF4FFFF0010024028
:100F600000127A00EFFF0000436A1B0706D50268F3
:100F700053682C490B40416B0B435360436ADB07BA
:100F800006D50268536828490B40816A0B435360B9
:100F9000436A9B0706D50268536824490B40C16A1F
:100FA0000B435360436A5B0706D5026853682049C8
:100FB0000B40016B0B435360436ADB0606D50268A6
:100FC00093681C490B40816B0B439360436A9B06FB
:100FD00006D50268936818490B40C16B0B439360B8
:100FE000436A5B060BD50268536814490B40016CD9
:100FF0000B435360026C80235B039A420AD0436A1E
:101000001B0606D5026853680D490B40816C0B43E3
:1010100053607047026853680A490B40416C0B43A8
:101020005360ECE7FF7FFFFFFFFFFDFFFFFFFEFFC9
:10103000FFFFFBFFFFEFFFFFFFDFFFFFFFFFEFFF04
:10104000FFFFF7FFFFFF9FFFF8B5CE46474680B58D
:1010500006000D0017009946089B98463368DC6926
:101060002C40641B63425C41BC4233D14346013394
:10107000F4D0FFF767FD4B46C01A40452FD84346D2
:10108000002B2ED0326813685B07E7D5802DE5D0A2
:10109000402DE3D0D3691B0710D4D3691B05DDD5E0
:1010A00080231B0113623000FFF786FE8423202279
:1010B000F2500C3B0022F25403200CE0082414628E
:1010C0003000FFF779FE8423F4500C3B0022F254E9
:1010D000012000E00020C0BCB946B046F8BD0320A6
:1010E000F9E70320F7E7000030B583B0040084235C
:1010F0000022C250FFF726FD050023681B681B076E
:101100000FD423681B685B0729D42023E367802260
:10111000A350002323666366083AA354002003B05B
:1011200030BD8021224B0093030000228903200060
:10113000FFF78AFF0028E4D0EFF31081012383F347
:1011400010882268136880208343136081F310881D
:101150002023E36758330022E2547D38DFE7802103
:10116000134B00932B000022C9032000FFF76CFFF4
:101170000028CAD0EFF31080012282F31088216882
:101180000B680C4D2B400B6080F31088EFF3108040
:1011900082F3108821688B6893438B6080F31088FA
:1011A00080231F32E250083B0022E2540320B6E7BE
:1011B000FFFFFF01DFFEFFFF10B5041E2ED0C36F3F
:1011C000002B21D02423E3672268136801218B437D
:1011D0001360636A002B1DD12000FFF71DFE01285C
:1011E00011D0226853680E490B40536022689368FF
:1011F0002A218B4393602268136829390B431360BB
:101200002000FFF771FF10BD78330022C25400F0B8
:101210004FF8D7E72000FFF7A7FEDDE70120F2E750
:10122000FFB7FFFF10B586B01422002101A800F01F
:101230009CF80F4B5A69802189020A435A615B6905
:101240000B400093009B9024E4050022C021200065
:10125000FFF74EFDC0230193BF3B0293002303938E
:10126000049301A92000FFF785FC06B010BDC0461D
:101270000010024010B50C480C4B0360E1235B02E8
:10128000436000238360C36003610C224261836179
:10129000C36103624362FFF78FFF002800D110BDD6
:1012A000FEF7E6FFFBE7C0462C00002000380140B7
:1012B00010B588B004001422002103A800F055F8EE
:1012C0002268134B9A4201D008B010BD114B9A69A5
:1012D0008021C9010A439A619A690A400192019AE0
:1012E0005A69802189020A435A615B690B40029363
:1012F000029B0C2303930A3B049301330693023BA6
:101300000793902003A9C005FFF734FCDCE7C04633
:1013100000380140001002400D488546FFF74AFDA5
:101320000C480D490D4A002302E0D458C450043340
:10133000C4188C42F9D30A4A0A4C002301E0136016
:101340000432A242FBD300F019F8FEF7CCFFFEE70F
:1013500000100020000000200C0000201C140008D9
:101360000C000020B4000020FEE703008218934226
:1013700000D1704719700133F9E7000070B50026FD
:101380000C4C0D4D641BA410A64209D1002600F0A0
:1013900019F80A4C0A4D641BA410A64205D170BD71
:1013A000B300EB5898470136EEE7B300EB58984787
:1013B0000136F2E714140008141400081814000889
:1013C00014140008F8B5C046F8BC08BC9E46704727
:0C13D000F8B5C046F8BC08BC9E4670474B
:1013DC000102030405060708090A0B0C0D0E0F1079
:1013EC0002030405060708090A0B0C0D0E0F10105A
:1013FC0000000000010203040000000000000000D7
:08140C000102030406070809B0
:041414004D0200087D
:0414180021020008A5
:0C141C00010000000400000000127A0033
:0400000508001319C3
:00000001FF
