:020000040800F2
:1000000000100020151E00088D0300088F03000853
:1000100000000000000000000000000000000000E0
:100020000000000000000000000000009103000834
:100030000000000000000000930300089503000882
:10004000651E0008651E0008651E0008651E000884
:10005000651E0008651E0008651E0008651E000874
:1000600000000000651E0008651E0008651E0008EF
:10007000651E0008651E0008651E0008651E000854
:10008000651E00080000000000000000651E00085A
:1000900000000000651E0008651E0008651E0008BF
:1000A00000000000651E0008000000009D0300081D
:1000B0000000000000000000000000000000000040
:1000C0000023C25C0133002AFBD1581E7047000098
:1000D00003B47146490840004900095E49008E4456
:1000E00003BC7047002243088B4274D303098B4240
:1000F0005FD3030A8B4244D3030B8B4228D3030CF8
:100100008B420DD3FF22090212BA030C8B4202D399
:100110001212090265D0030B8B4219D300E0090AC1
:10012000C30B8B4201D3CB03C01A5241830B8B42CA
:1001300001D38B03C01A5241430B8B4201D34B03B3
:10014000C01A5241030B8B4201D30B03C01A524118
:10015000C30A8B4201D3CB02C01A5241830A8B429D
:1001600001D38B02C01A5241430A8B4201D34B0286
:10017000C01A5241030A8B4201D30B02C01A5241EA
:10018000CDD2C3098B4201D3CB01C01A524183099E
:100190008B4201D38B01C01A524143098B4201D3D8
:1001A0004B01C01A524103098B4201D30B01C01A03
:1001B0005241C3088B4201D3CB00C01A524183087D
:1001C0008B4201D38B00C01A524143088B4201D3AA
:1001D0004B00C01A5241411A00D20146524110460A
:1001E0007047FFE701B5002000F006F802BDC046E9
:1001F0000029F7D076E770477047C0460448054BA2
:1002000010B5834203D0044B002B00D0984710BD9B
:100210005C0000205C000020000000000648074948
:10022000091A8B10C90FC91810B5491003D0044B17
:10023000002B00D0984710BD5C0000205C0000201F
:100240000000000010B5074C2378002B09D1FFF700
:10025000D5FF054B002B02D0044800E000BF01236E
:10026000237010BD5C00002000000000A0270008E3
:10027000054B10B5002B03D00449054800E000BF32
:10028000FFF7CCFF10BDC04600000000600000205A
:10029000A027000872B6FEE710B594B03022002106
:1002A00008A801F003FE10241022002104A801F088
:1002B000FDFD10220021684601F0F8FD122308938D
:1002C000113B0B930D930C940E9401331093A023C8
:1002D0009B03129308A800F081F8002817D1072388
:1002E0000493053B0593002306930793012104A87B
:1002F00000F0ECFA00280CD10123009300230293B4
:10030000684600F093FB002805D114B010BDFFF73C
:10031000C1FFFFF7BFFFFFF7BDFF000010B500F002
:100320003DFCFFF7B9FF01F039FA01F05FFA01F087
:10033000B7FA114C200001F039FC6421200001F0D3
:1003400065FC200001F0C6FC0C4B18800004020C78
:100350000B490C4C200001F087FD2000FFF7B0FE98
:10036000FA2382B208489B00210001F0FEF86420C5
:1003700000F036FCDDE7C046200100208C000020A4
:10038000B82700087800002098000020FEE7FEE76C
:100390007047704710B500F011FC10BD10B5024851
:1003A00000F014FE10BDC0469800002082B00A4B39
:1003B000996901221143996199690A400092009A52
:1003C000DA69802149050A43DA61DB690B40019350
:1003D000019B02B07047C0460010024070B582B069
:1003E000041E00D12EE20368DB0726D5AE4B5A6807
:1003F0000C231340042B18D0AB4B5A680C2313402A
:10040000082B0ED06368012B3CD0002B51D1A64B9A
:100410001A68A6490A401A601A68A5490A401A6073
:1004200036E0A14B5B68DB03ECD59F4B1B689B035D
:1004300003D56368002B00D107E223689B0772D5C0
:10044000994B5B680C221A425DD0974B5A680C237B
:100450001340082B53D0E368002B00D185E0924A6B
:10046000136801210B43136000F0B4FB05008E4BB1
:100470001B689B0770D400F0ADFB401B0228F6D927
:100480000320E0E1884A116880235B020B4313607C
:100490006368002B25D000F09DFB0500824B1B6894
:1004A0009B03CAD400F096FB401B6428F6D90320B6
:1004B000C9E1052B09D07C4B1A687C490A401A60B7
:1004C0001A687B490A401A60E2E7774B1968802274
:1004D000D2020A431A601968802252020A431A6043
:1004E000D6E700F077FB05006F4B1B689B03A4D594
:1004F00000F070FB401B6428F6D90320A3E16A4B8F
:100500005B68DB03A7D4684B1B689B0703D5E368D4
:10051000012B00D09BE164490B68F82293432269C8
:10052000D20013430B6023681B0744D5E369002BFB
:100530002ED05D4A536A01210B43536200F04AFBFF
:100540000500594B5B6A9B0735D400F043FB401B09
:100550000228F6D9032076E153490B68F822934329
:100560002269D20013430B60DDE74F4A1368012173
:100570008B43136000F02EFB05004B4B1B689B0761
:10058000D1D500F027FB401B0228F6D903205AE101
:10059000454A536A01218B43536200F01BFB05005F
:1005A000414B5B6A9B0706D500F014FB401B0228F9
:1005B000F6D9032047E123685B0700D480E03A4B7B
:1005C000DB69DB001DD4384BDA69802149050A4319
:1005D000DA61DB690B400193019B0125354B1B68F8
:1005E000DB0510D5A368012B21D0002B36D12E4B73
:1005F0001A6A01218A431A621A6A03318A431A620B
:100600001AE00025EAE72B4A116880235B000B43C0
:10061000136000F0DFFA0600264B1B68DB05E1D40F
:1006200000F0D8FA801B6428F6D903200BE11E4A9B
:10063000136A01210B431362A368002B24D000F03E
:10064000C9FA0600184B1B6A9B0737D400F0C2FAA0
:10065000801B194B9842F5D90320F4E0052B09D0F3
:10066000114B1A6A01218A431A621A6A03318A43BA
:100670001A62E1E70C4B1A6A04210A431A621A6AE9
:1006800003390A431A62D7E700F0A4FA0600064BC2
:100690001B6A9B0712D500F09DFA801B064B9842FF
:1006A000F5D90320CFE0C04600100240FFFFFEFF57
:1006B000FFFFFBFF0070004088130000012D33D0C6
:1006C0002368DB0610D56369012B33D0053351D184
:1006D000654A536B04218B435363536BF4318B4353
:1006E000A169C9000B435363236A002B00D1B0E01A
:1006F0005D4A51680C220A40082A00D18AE0022B88
:100700004FD0594A136859490B40136000F062FA00
:100710000400554B1B689B017AD500F05BFA001B67
:100720000228F6D903208EE04F4AD36950490B4086
:10073000D361C5E74C4B5A6B04210A435A635A6B89
:1007400003390A435A6300F045FA0500464B5B6BD8
:100750009B0706D400F03EFA401B0228F6D903207E
:1007600071E041494B6BF8229343A269D2001343D5
:100770004B63B9E73C4B5A6B04210A435A635A6BEB
:1007800003398A435A6300F025FA0500364B5B6B48
:100790009B07A9D500F01EFA401B0228F6D90320BA
:1007A00051E0314A136831490B40136000F012FAEE
:1007B00005002D4B1B689B0106D500F00BFA401B72
:1007C0000228F6D903203EE0274BDA6A0F218A433C
:1007D000E16A0A43DA625A6826490A40A16A606AF5
:1007E00001430A435A601968802252040A431A607E
:1007F00000F0F0F904001C4B1B689B0106D400F0CC
:10080000E9F9001B0228F6D903201CE000201AE0B9
:10081000002018E0012B1ED0134B5A68D86A8023A1
:100820005B021340616A8B4217D10F230340E16AD8
:100830008B4214D1F0239B031A40A36A9A4210D131
:10084000002000E0012002B070BD0120FBE7012084
:10085000F9E70020F7E70120F5E70120F3E70120A1
:10086000F1E70120EFE7C04600100240FFFFFFFE66
:10087000FFFFFFEFFFFFC2FF10B5104B5A680C23BC
:100880001340082B01D00E4810BD910C07331940BE
:100890000C48445C0949C96A0B400B49C95CD20346
:1008A00004D50748FFF71EFC6043EDE76201121B09
:1008B00093019B1ADB001B191802E5E700100240A8
:1008C00000127A00DC270008CC27000870B504006D
:1008D0000D00002800D17EE0434B1A68012313402D
:1008E0008B420AD240490B68012293432B430B6091
:1008F0000B681A40AA4200D06FE023689A070ED511
:100900005B0705D5394A5168E023DB000B43536090
:10091000364A5368F0218B43A1680B435360236828
:10092000DB072DD56368012B1ED0022B22D02F4A66
:100930001268920753D52D494A6803208243134316
:100940004B6000F047F90600284B5B680C221A4008
:1009500063689B009A4213D000F03CF9801B244B43
:100960009842F1D9032035E0204A12689203E2D47C
:1009700001202FE01D4A12689201DCD4012029E0F9
:10098000194B1A6801231340AB4209D916490B6869
:10099000012293432B430B600B681A40AA4220D1DB
:1009A00023685B0706D5114A536812490B40E1687A
:1009B0000B435360FFF760FF0C4B5A6812090F237B
:1009C00013400D4AD35CD8400C4B1860032000F054
:1009D000BDF8002070BD0120FCE70120FAE70120EE
:1009E000F8E70120F6E7C046002002400010024070
:1009F00088130000FFF8FFFFF4270008080000201C
:100A0000014B18687047C0460800002010B5FFF77A
:100A1000F7FF044B5A68120A07231340024AD35CBB
:100A2000D84010BD00100240EC27000870B582B01D
:100A300004000368DB0339D53E4BDB69DB004BD494
:100A40003C4BDA69802149050A43DA61DB690B40D6
:100A50000193019B0125384B1B68DB053ED5354BC7
:100A60001A6AC0239B00110019401A4215D063680E
:100A7000C022920013408B420FD02E4B1A6A2F498E
:100A800011401E6A8020400230431862186A2C4EC2
:100A9000304018621962D20734D4264A136A2749B3
:100AA0000B4061680B431362012D3AD02368DB07CA
:100AB00006D5204A136B03218B43A1680B431363B4
:100AC00023689B0632D51B4A136B10218B43E168C8
:100AD0000B43136300202AE00025BCE7164A116887
:100AE00080235B000B43136000F074F80600124B88
:100AF0001B68DB05B3D400F06DF8801B6428F6D9C1
:100B0000032014E000F066F806000A4B1B6A9B07FE
:100B1000C3D400F05FF8801B0A4B9842F5D903203C
:100B200005E0D36908490B40D361BFE7002002B05C
:100B300070BDC0460010024000700040FFFCFFFF87
:100B4000FFFFFEFF88130000FFFFFFEF10B504005A
:100B50000F4B1978FA208000FFF7C4FA01000D4B03
:100B60001868FFF7BFFA00F0B5F900280DD1032C83
:100B700001D901200AE0013000222100404200F0AA
:100B800099F9054B1C60002000E0012010BDC04613
:100B900000000020080000200400002010B5064AD4
:100BA000136810210B4313600320FFF7CFFFFFF7FB
:100BB000FDFB002010BDC04600200240034A116822
:100BC000034B1B785B1813607047C04690000020F1
:100BD00000000020014B18687047C04690000020BC
:100BE00070B50400FFF7F6FF0500631C02D0044B4C
:100BF0001B78E418FFF7EEFF401BA042FAD370BD4C
:100C000000000020F0B583B0002356E086685F0046
:100C10000324BC40A643CC68BC4034438460446891
:100C200094434E683609012232409A402243426082
:100C300053E0DE080836B600375805321A409200F5
:100C40000F249440A7430C69944022003A43325049
:100C500056E0022600E00026A64034003C43023263
:100C60009200424E9451424A9768EA433E00AE4396
:100C70004C68E40201D53E002E433D4CA660E76877
:100C80003E0016404C68A40201D53E002E43384C6D
:100C9000E66067683E0016404C68A40301D53E003C
:100CA0002E43334C6660266832404C68E40301D51D
:100CB0002A0032432E4C226001330C682200DA40B5
:100CC00051D001229A40250015401442F4D04E68BC
:100CD00003243440013C012C98D94C680322224063
:100CE000032A08D0C4685E000322B24094438A6895
:100CF000B2402243C2604C6803222240022A98D0AC
:100D000004685E0003221700B740BC434F683A40B6
:100D1000B240224302604C68C02292021442CBD0FF
:100D2000144CA66901221643A661A46922400192CF
:100D3000019A9A08941CA4000C4EA75903241C4045
:100D4000A4000F26A640B7439026F605B04282D0F5
:100D5000094EB04205D0094EB04200D179E70526D0
:100D60007AE7012678E703B0F0BDC04600000140F5
:100D70000004014000100240000400480008004840
:100D8000002A01D0816170478162FCE710B5212300
:100D9000C35C022B06D0042383631C330022C2549D
:100DA000012010BD026813680E218B431360016897
:100DB0000A6801239A430A60016CC26B1C008C40D4
:100DC0005460212283541F330022C2540020E8E7DC
:100DD00010B52123C35C022B03D0042383630120BD
:100DE00010BD026813680E218B43136001680A6806
:100DF00001239A430A60016CC26B1C008C40546052
:100E0000212283541F330022C254436B002B02D093
:100E100098470020E4E70020E2E7000070B50028D2
:100E200011DB8308134DC0339B005C590322104033
:100E3000C000FC3216008640B44389010A4082405B
:100E400022435A5170BD0F230340083B9B080633D1
:100E50009B00094A944663445C6803221040C0002A
:100E6000FC3215008540AC4389010A408240224390
:100E70005A60E7E700E100E000ED00E00138802380
:100E80005B0498420FD2094A50600948036A1B026A
:100E90001B0AC02109060B4303620023936007333A
:100EA0001360002070470120FCE7C04610E000E01E
:100EB00000ED00E010B5FFF7B1FF10BD002805DB25
:100EC0001F22024001239340014A13607047C0462D
:100ED00000E100E010B5FFF7D1FF10BD7047000042
:100EE00010B503000C4A0D49521A0D490968002932
:100EF00007D00B490868C318934206D8084A136004
:100F000010BD074907480860F3E700F0D7FF0C233E
:100F1000036001204042F3E70010002000040000BD
:100F200094000020A802002010B5EFF3108C0122DD
:100F300082F3108801680B68124C23400B608CF31D
:100F40001088EFF3108C82F3108801688B6893434C
:100F50008B608CF31088036E012B06D08023202237
:100F6000C25000230366836610BDEFF3108183F344
:100F70001088026813683234FF34A343136081F38E
:100F80001088EBE7DFFEFFFF704710B5EFF310812D
:100F9000012383F31088026813684024A34313607D
:100FA00081F310882023C3670023C366FFF7ECFF9B
:100FB00010BD704710B5406A00235A228352083A88
:100FC0008352FFF7F6FF10BD7047000070B50400B4
:100FD0000268D36911689068AB4D2B4209D19D0618
:100FE0000FD58D060DD5A36E002B1DD02000984780
:100FF0001AE001252E000640054216D1A34D2942D4
:1010000013D1256E012D00D192E0DD0202D5400200
:1010100000D527E11A0602D50A0600D529E15B06AC
:1010200002D5490600D52BE170BDD80707D5C80504
:1010300005D501251562842022582A4322509A079B
:1010400009D5002E07D02268022010628230225873
:1010500004252A4322505A0709D5002E07D02268BA
:10106000042010628030225802252A4322501A0799
:101070000AD58A0601D4002E06D0226808251562FA
:10108000842022582A4322501A050AD54A0108D53D
:1010900022688020000110628420225820252A43E3
:1010A00022508422A258002ABED09B0606D589066B
:1010B00004D5A36E002B01D0200098478423E2586A
:1010C00023689B685B0602D42823134229D02000A2
:1010D000FFF72AFF23689B685B061ED5EFF310819C
:1010E000012383F310882268936840208343936030
:1010F00081F31088636F002B0BD0654A5A63606FD1
:10110000FFF766FE002800D18EE7606F436B9847BB
:101110008AE72000FFF74DFF86E72000FFF749FF31
:1011200082E72000FFF745FF84230022E2507BE79F
:10113000DD0600D469E7CD0600D466E7102313620C
:1011400023689B685B0652D5626F13685B689BB22D
:10115000002B00D168E75821615A994200D863E713
:101160005A2163529369202B0BD1022363665633B5
:10117000E15A0233E35AC91A89B22000FFF724FF6B
:1011800052E7EFF31080012383F3108821680A6887
:10119000404D2A400A6080F31088EFF3108083F3FB
:1011A000108821688A689A438A6080F31088EFF378
:1011B000108083F3108821688A684235FF35AA437E
:1011C0008A6080F3108880222021A15000222266AC
:1011D000EFF3108183F31088226813681020834393
:1011E000136081F31088606FFFF7D0FDBDE75823CF
:1011F000E35A5A22A15A591A89B2A35A9BB2002B18
:1012000000D111E7002900D10EE7EFF3108501238B
:1012100083F31088206802681F4E3240026085F315
:101220001088EFF3108583F31088206882689A4352
:10123000826085F3108880222020A0500022226640
:10124000A266EFF3108083F31088226813681025DC
:10125000AB43136080F31088022363662000FFF71E
:10126000B3FEE1E680235B031362200000F094FAF2
:10127000DAE6E36E002B00D1D6E620009847D3E6ED
:101280002000FFF782FECFE60F08000020010004D7
:10129000B50F0008FFFEFFFFDFFEFFFF10B50400E3
:1012A00083680269134342691343C26913430168A7
:1012B0000A684848024013430B6022685368464955
:1012C0000B40E1680B435360A369226A1A4321680B
:1012D0008B684248034013438B60414B1A6B0323D6
:1012E0001340022B0AD005D8002B16D0012B16D1A3
:1012F000033304E0032B14D1013B00E00823E06931
:101300008022120290420ED0042B58D039D8002BE4
:101310003ED0022B33D133483EE00023EFE71023C9
:10132000EDE71023EBE7042B26D007D8002B09D0DC
:10133000022B01D12B4809E001203CE0082B05D00D
:10134000012038E0FFF762FB00283BD040006168D5
:101350004B08C018FEF7C6FE0200103A224B9A4214
:1013600032D882B20F239A434008083B034013430C
:101370002268D36000201EE0FFF77EFAE4E7012038
:1013800019E0082B02D18020000205E0012012E0C4
:10139000FFF73CFB002819D061684B081818FEF7CE
:1013A000A1FE0200103A104B9A4211D823680004A3
:1013B000000CD86000200023A366E36610BDFFF791
:1013C0005BFAE7E70020F6E70120F4E70020F2E708
:1013D0000120F0E7F369FFFFFFCFFFFFFFF4FFFFFE
:1013E0000010024000127A00EFFF0000436A1B0762
:1013F00006D5026853682C490B40416B0B43536080
:10140000436ADB0706D50268536828490B40816AA6
:101410000B435360436A9B0706D50268536824490F
:101420000B40C16A0B435360436A5B0706D50268F1
:10143000536820490B40016B0B435360436ADB0642
:1014400006D5026893681C490B40816B0B4393607F
:10145000436A9B0606D50268936818490B40C16B26
:101460000B439360436A5B060BD5026853681449CB
:101470000B40016C0B435360026C80235B039A4268
:101480000AD0436A1B0606D5026853680D490B4013
:10149000816C0B4353607047026853680A490B40E4
:1014A000416C0B435360ECE7FF7FFFFFFFFFFDFF45
:1014B000FFFFFEFFFFFFFBFFFFEFFFFFFFDFFFFF71
:1014C000FFFFEFFFFFFFF7FFFFFF9FFFF8B5CE46DF
:1014D000474680B506000D0017009946089B9846C0
:1014E0003368DC692C40641B63425C41BC4233D1ED
:1014F00043460133F4D0FFF76DFB4B46C01A40451D
:101500002FD84346002B2ED0326813685B07E7D5EF
:10151000802DE5D0402DE3D0D3691B0710D4D369CB
:101520001B05DDD580231B0113623000FFF7FCFC97
:1015300084232022F2500C3B0022F25403200CE0C2
:10154000082414623000FFF7EFFC8423F4500C3BB6
:101550000022F254012000E00020C0BCB946B04691
:10156000F8BD0320F9E70320F7E7F0B5C64600B55C
:1015700082B004000D0090461E00C36F202B62D184
:10158000002965D0002A65D0826880235B019A42D9
:1015900004D10369002B01D1CB075DD48423002241
:1015A000E250633BE367FFF715FB07005023424619
:1015B000E2520233E252A26880235B019A4202D0D7
:1015C000002398461AE02369002B02D00023984696
:1015D00014E0A846002511E02023E367032033E050
:1015E00043461B882268DB05DB0D138502239C46DE
:1015F000E0445223E25A013A92B2E2525223E35AB1
:101600009BB2002B0FD000963B00002280212000CF
:10161000FFF75CFF0028DFD1002DE1D02A78236896
:101620001A850135E5E700963B00002240212000A5
:10163000FFF74CFF002802D12023E36704E02023BA
:10164000E367032000E0022002B080BCB846F0BD92
:101650000120F9E70120F7E70120F5E730B583B075
:10166000040084230022C250FFF7B4FA0500236867
:101670001B681B070FD423681B685B0729D4202332
:10168000E3678022A350002323666366083AA354CD
:10169000002003B030BD8021224B009303000022C4
:1016A00089032000FFF712FF0028E4D0EFF3108138
:1016B000012383F31088226813688020834313601A
:1016C00081F310882023E36758330022E2547D38E9
:1016D000DFE78021134B00932B000022C903200079
:1016E000FFF7F4FE0028CAD0EFF31080012282F346
:1016F000108821680B680C4D2B400B6080F310881C
:10170000EFF3108082F3108821688B6893438B601D
:1017100080F3108880231F32E250083B0022E254FD
:101720000320B6E7FFFFFF01DFFEFFFF10B5041E39
:101730002ED0C36F002B21D02423E36722681368C7
:1017400001218B431360636A002B1DD12000FFF73A
:10175000A5FD012811D0226853680E490B40536043
:10176000226893682A218B43936022681368293981
:101770000B4313602000FFF771FF10BD7833002288
:10178000C25400F051F8D7E72000FFF72FFEDDE745
:101790000120F2E7FFB7FFFF7047000010B586B0E9
:1017A0001422002101A800F081FB0F4B5A6980210F
:1017B00089020A435A615B690B400093009B9024A5
:1017C000E4050022C0212000FFF7DAFAC0230193CC
:1017D000BF3B029300230393049301A92000FFF76A
:1017E00011FA06B010BDC0460010024010B50C48FA
:1017F0000C4B0360E1235B02436000238360C36002
:1018000003610C2242618361C36103624362FFF79B
:101810008DFF002800D110BDFEF73CFDFBE7C04660
:10182000980000200038014010B588B00400142250
:10183000002103A800F03AFB2268174B9A4201D01E
:1018400008B010BD154B9A698021C9010A439A61FD
:101850009A690A400192019A5A69802189020A43D1
:101860005A615B690B400293029B0C2303930A3B72
:10187000049301330693023B0793902003A9C0050C
:10188000FFF7C0F9002200211B20FFF713FB1B20EC
:10189000FFF714FBD4E7C0460038014000100240B7
:1018A00000B585B00C22002101A800F0FFFA18480D
:1018B000184B03600023436010228260C3600F3A1C
:1018C000026104214161037643768276C376C221A8
:1018D000FF31C16103629E39FF394354826200F0D7
:1018E000A3F800280ED10023019380235B0102930B
:1018F00007230393064801A900F0F0F9002804D15A
:1019000005B000BDFEF7C6FCEDE7FEF7C3FCF7E748
:10191000200100200024014010B588B004001422EA
:10192000002103A800F0C2FA2268114B9A4201D0AC
:1019300008B010BD0F4B9A69802189000A439A6153
:101940009A690A400192019A5A69802189020A43E0
:101950005A615B690B400293029B0123039302339C
:101960000493902003A9C005FFF74CF9E0E7C046B7
:10197000002401400010024030B583B00400002371
:1019800001930368996803220A40012A14D09968D8
:10199000224A114218D19A6801210A439A60204BC9
:1019A00018682049FEF79EFB0190019B002B15D083
:1019B000019B013B0193F8E71A68D2072BD4DA6840
:1019C0001204E4D5002024E0A36B10221343A36388
:1019D000E36B0F3A1343E36301201AE0FFF7FAF8D1
:1019E000050023681B68DB0712D4FFF7F3F8401BE0
:1019F0000228F6D923681B68DB07F2D4A36B1022F8
:101A00001343A363E36B0F3A1343E363012000E046
:101A1000002003B030BD0020FBE7C0461700008067
:101A20000800002040420F0070B5041E00D1B4E051
:101A3000836B002B00D180E0A36BDB0600D5A6E012
:101A400023689A68042108001040114200D09EE0EB
:101A5000A26B53490A400631FF310A43A2639968D9
:101A600003220A40012A6ED0DA6818218A43A1684D
:101A70000A43DA60226813699B009B0861680B4384
:101A800013612268D36847490B40D360237E9B03D0
:101A9000627ED2031343A17E4A031343A26A012A42
:101AA00058D0802252011343E26813432269022A6C
:101AB00052D003432422A25C52001343E27E012A47
:101AC0004CD0E269C221FF318A4202D0216A0A4326
:101AD00013432168CA681A43CA60E26A8021490533
:101AE0008A420DD0012A0BD0022A09D0032A07D03E
:101AF000042A05D0052A03D0062A01D0072A0AD1D4
:101B00002068416907229143416120684169E56A83
:101B10002A400A4342612268D26823490A409A4215
:101B20002BD0A36B12229343023A1343A363E36BBC
:101B30000F3A1343E36301202EE0C363342283543E
:101B4000FFF7EAFE78E71A68D2079AD4DA68120437
:101B500097D489E70200A6E70420AAE7002903D169
:101B6000802252021343ACE7A26B20210A43A263F6
:101B7000E26B1F390A43E263A3E70023E363A36B2D
:101B800003229343023A1343A363002004E0A36BB0
:101B900010221343A363012070BD0120FCE7C0465F
:101BA000FDFEFFFF1902FEFFE7FF3F8310B50400B3
:101BB00003689B685B0723D43423C35C012B21D0CB
:101BC00034230122C254437E012B14D10020A26B86
:101BD0000D4B1A4080235B001343A3630023E36390
:101BE0003422A3542368183A1A60226893680421A7
:101BF0000B43936010BDFFF7BFFE0028FAD1E6E764
:101C00000220F7E70220F5E7FEF0FFFFF8B5040039
:101C10000E004769082F04D00368DB68DB0718D47F
:101C20000C27FEF7D7FF050023681A6817421FD15B
:101C3000731CF9D0002E15D123681B681F42F3D105
:101C4000A36B04221343A36334230022E254032032
:101C500032E0836B20221343836334230022C25477
:101C6000012029E0FEF7B6FF401BB042DCD9E3E7D4
:101C7000A16B802292000A43A263D968C02212019C
:101C8000114213D1A27E002A10D11A6812070DD575
:101C90009A68520711D45A680C218A435A60A36B80
:101CA0000B4A13400432FF321343A363207E002803
:101CB0000CD123680C221A60F8BDA36B20221343B9
:101CC000A363E36B1F3A1343E363EFE70020F3E7FB
:101CD000FEFEFFFF0368186C7047000030B583B04C
:101CE0000400002301933433C35C012B00D181E055
:101CF00034230122C254026893685B076CD448689D
:101D00003D4B98424DD0936A0D680120A840034393
:101D10009362E36A072B27D8002B10D188682268CA
:101D2000556907232B40984209D0506907239843EF
:101D30005061206842698D682B40134343610B68F2
:101D40001A00103A022A51D82C4A1268102B13D0CC
:101D5000112B0ED080235B041343284A13600B68B9
:101D6000102B0CD000203CE0802252059342E6D09C
:101D7000D4E78023DB03EFE780231B04ECE7204B51
:101D800018682049FEF7AEF983001B185B00019329
:101D900002E0019B013B0193019B002BF9D1002044
:101DA0001FE0936A0D680120A840834393620B688B
:101DB0001A00103A022A1BD8104A1268102B09D0B8
:101DC000112B05D0104B13400C4A1360002008E083
:101DD0000E4BF8E70E4BF6E7836B20221343836329
:101DE000012034230022E25403B030BD0020F8E784
:101DF0000020F6E70220F7E7011000000827014065
:101E00000800002040420F00FFFFFFFEFFFFBFFF62
:101E1000FFFF7FFF0D488546FFF760F80C480D492E
:101E20000D4A002302E0D458C4500433C4188C4235
:101E3000F9D30A4A0A4C002301E013600432A2429B
:101E4000FBD300F041F8FEF769FAFEE7001000202E
:101E5000000000205C000020402800085C000020FA
:101E6000A8020020FEE700000EB410B500240C49C3
:101E70009DB01FAB029006900791049109480A4952
:101E800004CB0591006802A901931B9400F09EF910
:101E9000029B1C701DB010BC08BC03B01847C046A4
:101EA000FFFFFF7F0C0000200802FFFF03008218E5
:101EB000934200D1704719700133F9E7014B18685C
:101EC0007047C0460C00002070B500260C4C0D4D2C
:101ED000641BA410A64209D1002600F061FC0A4C44
:101EE0000A4D641BA410A64205D170BDB300EB5887
:101EF00098470136EEE7B300EB5898470136F2E712
:101F000038280008382800083C280008382800082D
:101F10007047704770B505000C1E10D0043C236854
:101F2000002B00DAE418280000F0E0F81D4A1368DE
:101F3000002B05D163601460280000F0DFF870BD4D
:101F4000A34208D9206821188B42F3D119685B6835
:101F500009182160EEE71A005B68002B01D0A3424C
:101F6000F9D911685018A0420BD1206809185018EF
:101F700011608342E0D118685B68411811605360BA
:101F8000DAE7A04202D90C232B60D5E7206821189C
:101F90008B4203D119685B68091821606360546043
:101FA000CAE7C046A402002070B50F4E0D0031688C
:101FB0000400002902D100F095FB306029002000C8
:101FC00000F090FB431C03D101256D42280070BD39
:101FD0000323C51C9D43A842F8D0291A200000F015
:101FE00081FB0130F2D1EFE7A0020020F7B5032218
:101FF000CB1C9343083305001F000C2B34D20C2755
:10200000B94233D8280000F071F8374E33681C000D
:10201000002C2FD139002800FFF7C6FF0400431C15
:102020005FD134680094009B002B4AD1002C52D021
:1020300023682800E3180099019300F053FB019BEB
:10204000834248D123682800FF1A3900FFF7ACFF0C
:10205000013040D02368DB19236033685A68002AB6
:1020600033D1009B336019E0002BC9DA0C232B60BD
:102070000020FEBD2168C91B20D40B290AD9E21912
:102080002760A34204D1326063681160536005E0A9
:102090005A60F9E76268A3420ED13260280000F06E
:1020A0002DF8200007220B30231D9043C21A9842BE
:1020B000DFD01B1AA350DCE75A60EFE72300646807
:1020C000A6E7009C63680093ADE71A005B68A34233
:1020D000FBD10023DAE70C2328002B6000F00EF878
:1020E000C6E70760DAE7C046A402002010B5024840
:1020F000FFF70EFF10BDC0469C02002010B502483D
:10210000FFF707FF10BDC0469C020020F0B58E68A7
:1021100085B01F000C000B6802900392BE4230D8BD
:102120000C21625E9021C9000A4228D00320216957
:102130005B1A0193636943430198DD0FED187B1C23
:102140001B186D10AB4200D91D00520528D529007F
:102150000298FFF74BFF061E2CD0019A216900F070
:10216000DEFAA289184B1A4080231343A381019BF6
:102170002661F61826603E006561ED1AA560BE4234
:1021800000D93E0032000399206800F099FA00203F
:10219000A3689B1BA36023689B19236005B0F0BD57
:1021A0002A00029800F0C4FA061EE0D121690298C4
:1021B000FFF7B0FE0C230120029A40421360A2896F
:1021C00034331343A381E9E77FFBFFFFF0B5A1B0F0
:1021D00003901D008B890F0016001B0611D50B699B
:1021E000002B0ED14021FFF701FF38603861002835
:1021F00005D10C23039A136001204042CFE0402315
:102200007B61002308AC6361203363761033A376CF
:10221000079535002B78002B01D0252B48D1AB1B1F
:102220000593B5420BD0320039000398FFF76EFFDB
:10223000013000D1AEE06369059A9B1863612B7889
:10224000002B00D1A6E0012200235242626004A9C3
:10225000543252186E1C2360E360A3601370A365B0
:10226000544B052218003178059300F04DFA751C87
:1022700000281FD12268D30604D5532304A95B1874
:1022800020211970130704D5532304A95B182B21AF
:10229000197033782A2B16D0350000210A20E36804
:1022A0002A786E1C303A092A50D9002911D117E03A
:1022B0000135AFE7059B2268C01A01238340134311
:1022C0002E002360CCE7079B191D1B680791002B8C
:1022D00001DB0B9304E05B42E360022313432360C2
:1022E0002B782E2B0CD16B782A2B34D1079B0235FF
:1022F0001A1D1B680792002B01DA01235B42099328
:102300002D4E03223000297800F0FEF9002806D077
:102310004023801B834022680135134323602978C2
:10232000062226486E1C217600F0EEF9002838D0EF
:10233000234B002B22D10722079B073393430833FB
:1023400007936369049A9B18636162E7434335000E
:1023500001219B18A4E700230A20190001356360BE
:102360002A786E1C303A092A03D9002BC8D009916B
:10237000C6E74143350001238918F1E707AA009217
:1023800021003A000F4B039800E000BF0490049B2B
:102390000133D6D1BB890D985B0600D52CE721B05F
:1023A000F0BD07AA009221003A00064B039800F006
:1023B0007BF8EBE7042800080A2800080E2800082C
:1023C000000000000D210008F7B5160001938A688F
:1023D0000B690C000090934200DA13002200336076
:1023E00043321278002A01D00133336023689B0600
:1023F00002D53368023333602268062315001D407E
:102400001A4227D0230043331B785A1E9341226877
:10241000920630D4220001990098089D4332A847C3
:10242000013025D00622236800251340042B05D156
:102430003368E568ED1AEB43DB171D40A36822699A
:10244000934201DD9B1AED180026B54220D10020F1
:1024500010E00135E36832689B1AAB42D2DD2200FE
:10246000012301990098089F1932B8470130F0D133
:1024700001204042FEBD3020E118433108702100A8
:102480005A1C45310978A218433202331170C1E752
:102490002200012301990098089F1A32B8470130A1
:1024A000E6D00136D1E70000F0B58BB006920A0005
:1024B00043320793059003920A7E0C00109B782A02
:1024C00009D8622A0BD8002A00D1BAE07A490491CF
:1024D000582A00D18EE0250042352A7022E01000F3
:1024E00063381528F7D8FDF7F3FD16001F00F6FF37
:1024F000F6FFF6FFF6FF1F00F6FFF6FFF6FFF6FF0A
:102500009F0036007E00F6FFF6FFB000F6FF3600B3
:10251000F6FFF6FF820025001A684235111D19608A
:1025200013682B7001239EE018680968021D0D06D0
:102530000BD506681A60002E03DA2D23039A764223
:1025400013705D4B0A27049318E006681A60490669
:10255000F1D536B2EFE70868196840C9050602D41C
:10256000400600D5B6B21960534B0A2704936F2A70
:1025700000D1023F2300002243331A706368A36036
:10258000002B06DB04212268039D8A43226033432B
:102590000CD0039D30003900FDF72AFE049B013D5D
:1025A0005B5C2B70330006009F42F3D9082F09D1E2
:1025B0002368DB0706D5626823699A4202DC302370
:1025C000013D2B70039B5B1B2361079B2100009344
:1025D0000598069B09AAFFF7F7FE013048D10120B4
:1025E00040420BB0F0BD202209680A4322607822E5
:1025F00032490491210045310A701968226840C9A6
:10260000100602D4500600D5B6B21960D30702D521
:10261000202313432360002E01D01027AAE7202295
:10262000236893432360F8E71A680D68101D496911
:10263000186013682E0601D5196002E06D06FBD5FF
:1026400019800023039D2361BFE71A68111D1960DB
:10265000156800212800626800F056F8002801D0B3
:10266000401B6060636823610023039A1370ACE72A
:102670002A00236906990598079DA8470130AED026
:1026800023689B0715D4099BE0689842A9DA1800D3
:10269000A7E72200012306990598079E1932B04743
:1026A00001309CD00135E368099A9B1AAB42F0DCFB
:1026B000E9E70025F7E7C0461528000826280008A6
:1026C00010B5884202D98B18984208D300239A4249
:1026D00007D0CC5CC4540133F9E78B5C8354013AD6
:1026E000FBD210BD002370B5064D040008002B601E
:1026F000FEF7F6FB431C03D12B68002B00D02360B0
:1027000070BDC04698020020C9B28218904201D123
:102710000020704703788B42FBD00130F6E700239E
:1027200010B59A4200D110BDCC5CC4540133F8E717
:10273000F7B506000C001500002905D11100FFF7C0
:1027400055FC04002000FEBD002A03D1FFF7E2FB88
:102750002C00F7E700F01CF80700854202D8430878
:10276000AB42EFD329003000FFF740FC0190002876
:1027700001D1019CE6E72A00BD4200D93A002100C0
:102780000198FFF7CCFF21003000FFF7C3FBF0E713
:102790000B1F1B68181F002B01DA0B58C01870475D
:1027A000F8B5C046F8BC08BC9E467047F8B5C046B0
:0827B000F8BC08BC9E4670470E
:1027B800204144432056616C7565203D20256420E6
:1027C8000A0D00000102030405060708090A0B0C9C
:1027D8000D0E0F1002030405060708090A0B0C0D5D
:1027E8000E0F10100000000001020304000000009A
:1027F800000000000102030406070809232D302BFE
:102808002000686C4C0065666745464700303132E9
:102818003334353637383941424344454600303140
:10282800323334353637383961626364656600009F
:042838007102000821
:04283C004502000849
:10284000010000000400000000127A0010000020C7
:102850000000000060010020C801002030020020BC
:102860000000000000000000000000000000000068
:102870000000000000000000000000000000000058
:102880000000000000000000000000000000000048
:0C2890000000000000000000000000003C
:0400000508001E15BC
:00000001FF
