:020000040800F2
:1000000000100020A91C00083D0300083F03000861
:1000100000000000000000000000000000000000E0
:100020000000000000000000000000004103000884
:100030000000000000000000430300084503000822
:10004000F91C0008F91C0008F91C0008F91C00083C
:10005000F91C0008F91C0008F91C0008F91C00082C
:1000600000000000F91C0008F91C0008F91C000839
:10007000F91C0008F91C0008F91C0008F91C00080C
:10008000F91C00080000000000000000F91C000836
:1000900000000000F91C0008F91C0008F91C000809
:1000A00000000000F91C0008000000004D030008DB
:1000B0000000000000000000000000000000000040
:1000C000002243088B4274D303098B425FD3030A97
:1000D0008B4244D3030B8B4228D3030C8B420DD3AA
:1000E000FF22090212BA030C8B4202D31212090238
:1000F00065D0030B8B4219D300E0090AC30B8B4276
:1001000001D3CB03C01A5241830B8B4201D38B0323
:10011000C01A5241430B8B4201D34B03C01A5241C8
:10012000030B8B4201D30B03C01A5241C30A8B420B
:1001300001D3CB02C01A5241830A8B4201D38B02F6
:10014000C01A5241430A8B4201D34B02C01A52419A
:10015000030A8B4201D30B02C01A5241CDD2C3090C
:100160008B4201D3CB01C01A524183098B4201D388
:100170008B01C01A524143098B4201D34B01C01A73
:10018000524103098B4201D30B01C01A5241C308EB
:100190008B4201D3CB00C01A524183088B4201D35A
:1001A0008B00C01A524143088B4201D34B00C01A46
:1001B0005241411A00D20146524110467047FFE7B2
:1001C00001B5002000F006F802BDC0460029F7D0B6
:1001D00076E770477047C0460448054B10B5834228
:1001E00003D0044B002B00D0984710BD0C0000201A
:1001F0000C0000200000000006480749091A8B1077
:10020000C90FC91810B5491003D0044B002B00D0FA
:10021000984710BD0C0000200C00002000000000DA
:1002200010B5074C2378002B09D1FFF7D5FF054BFC
:10023000002B02D0044800E000BF0123237010BD52
:100240000C00002000000000541D0008054B10B5F4
:10025000002B03D00449054800E000BFFFF7CCFFA6
:1002600010BDC0460000000010000020541D000812
:1002700072B6FEE710B594B03022002108A801F054
:100280003CFD10241022002104A801F036FD1022AC
:100290000021684601F031FD12230893113B0B93B6
:1002A0000D930C940E9401331093A0239B0312938F
:1002B00008A800F06BF8002817D107230493053B2A
:1002C0000593002306930793012104A800F0D6FAB2
:1002D00000280CD10123009300230293684600F00C
:1002E0007DFB002805D114B010BDFFF7C1FFFFF75B
:1002F000BFFFFFF7BDFF000000B583B000F026FC94
:10030000FFF7B8FF01F084FA01F0AAFA01F002FB4E
:10031000012309485B4201226946073101F040F997
:100320000028F5D1012304485B42012269460731C8
:1003300001F0BDF8ECE7C0462C000020FEE7FEE728
:100340007047704710B500F011FC10BD10B50248A1
:1003500000F0DEFD10BDC0462C00002082B00A4B2C
:10036000996901221143996199690A400092009AA2
:10037000DA69802149050A43DA61DB690B400193A0
:10038000019B02B07047C0460010024070B582B0B9
:10039000041E00D12EE20368DB0726D5AE4B5A6857
:1003A0000C231340042B18D0AB4B5A680C2313407A
:1003B000082B0ED06368012B3CD0002B51D1A64BEB
:1003C0001A68A6490A401A601A68A5490A401A60C4
:1003D00036E0A14B5B68DB03ECD59F4B1B689B03AE
:1003E00003D56368002B00D107E223689B0772D511
:1003F000994B5B680C221A425DD0974B5A680C23CC
:100400001340082B53D0E368002B00D185E0924ABB
:10041000136801210B43136000F0B4FB05008E4B01
:100420001B689B0770D400F0ADFB401B0228F6D977
:100430000320E0E1884A116880235B020B431360CC
:100440006368002B25D000F09DFB0500824B1B68E4
:100450009B03CAD400F096FB401B6428F6D9032006
:10046000C9E1052B09D07C4B1A687C490A401A6007
:100470001A687B490A401A60E2E7774B19688022C4
:10048000D2020A431A601968802252020A431A6093
:10049000D6E700F077FB05006F4B1B689B03A4D5E4
:1004A00000F070FB401B6428F6D90320A3E16A4BDF
:1004B0005B68DB03A7D4684B1B689B0703D5E36825
:1004C000012B00D09BE164490B68F8229343226919
:1004D000D20013430B6023681B0744D5E369002B4C
:1004E0002ED05D4A536A01210B43536200F04AFB50
:1004F0000500594B5B6A9B0735D400F043FB401B5A
:100500000228F6D9032076E153490B68F822934379
:100510002269D20013430B60DDE74F4A13680121C3
:100520008B43136000F02EFB05004B4B1B689B07B1
:10053000D1D500F027FB401B0228F6D903205AE151
:10054000454A536A01218B43536200F01BFB0500AF
:10055000414B5B6A9B0706D500F014FB401B022849
:10056000F6D9032047E123685B0700D480E03A4BCB
:10057000DB69DB001DD4384BDA69802149050A4369
:10058000DA61DB690B400193019B0125354B1B6848
:10059000DB0510D5A368012B21D0002B36D12E4BC3
:1005A0001A6A01218A431A621A6A03318A431A625B
:1005B0001AE00025EAE72B4A116880235B000B4311
:1005C000136000F0DFFA0600264B1B68DB05E1D460
:1005D00000F0D8FA801B6428F6D903200BE11E4AEC
:1005E000136A01210B431362A368002B24D000F08F
:1005F000C9FA0600184B1B6A9B0737D400F0C2FAF1
:10060000801B194B9842F5D90320F4E0052B09D043
:10061000114B1A6A01218A431A621A6A03318A430A
:100620001A62E1E70C4B1A6A04210A431A621A6A39
:1006300003390A431A62D7E700F0A4FA0600064B12
:100640001B6A9B0712D500F09DFA801B064B98424F
:10065000F5D90320CFE0C04600100240FFFFFEFFA7
:10066000FFFFFBFF0070004088130000012D33D016
:100670002368DB0610D56369012B33D0053351D1D4
:10068000654A536B04218B435363536BF4318B43A3
:10069000A169C9000B435363236A002B00D1B0E06A
:1006A0005D4A51680C220A40082A00D18AE0022BD8
:1006B0004FD0594A136859490B40136000F062FA51
:1006C0000400554B1B689B017AD500F05BFA001BB8
:1006D0000228F6D903208EE04F4AD36950490B40D7
:1006E000D361C5E74C4B5A6B04210A435A635A6BDA
:1006F00003390A435A6300F045FA0500464B5B6B29
:100700009B0706D400F03EFA401B0228F6D90320CE
:1007100071E041494B6BF8229343A269D200134325
:100720004B63B9E73C4B5A6B04210A435A635A6B3B
:1007300003398A435A6300F025FA0500364B5B6B98
:100740009B07A9D500F01EFA401B0228F6D903200A
:1007500051E0314A136831490B40136000F012FA3E
:1007600005002D4B1B689B0106D500F00BFA401BC2
:100770000228F6D903203EE0274BDA6A0F218A438C
:10078000E16A0A43DA625A6826490A40A16A606A45
:1007900001430A435A601968802252040A431A60CE
:1007A00000F0F0F904001C4B1B689B0106D400F01C
:1007B000E9F9001B0228F6D903201CE000201AE00A
:1007C000002018E0012B1ED0134B5A68D86A8023F2
:1007D0005B021340616A8B4217D10F230340E16A29
:1007E0008B4214D1F0239B031A40A36A9A4210D182
:1007F000002000E0012002B070BD0120FBE70120D5
:10080000F9E70020F7E70120F5E70120F3E70120F1
:10081000F1E70120EFE7C04600100240FFFFFFFEB6
:10082000FFFFFFEFFFFFC2FF10B5104B5A680C230C
:100830001340082B01D00E4810BD910C073319400E
:100840000C48445C0949C96A0B400B49C95CD20396
:1008500004D50748FFF734FC6043EDE76201121B43
:1008600093019B1ADB001B191802E5E700100240F8
:1008700000127A007C1D00086C1D000870B5040091
:100880000D00002800D17EE0434B1A68012313407D
:100890008B420AD240490B68012293432B430B60E1
:1008A0000B681A40AA4200D06FE023689A070ED561
:1008B0005B0705D5394A5168E023DB000B435360E1
:1008C000364A5368F0218B43A1680B435360236879
:1008D000DB072DD56368012B1ED0022B22D02F4AB7
:1008E0001268920753D52D494A6803208243134367
:1008F0004B6000F047F90600284B5B680C221A4059
:1009000063689B009A4213D000F03CF9801B244B93
:100910009842F1D9032035E0204A12689203E2D4CC
:1009200001202FE01D4A12689201DCD4012029E049
:10093000194B1A6801231340AB4209D916490B68B9
:10094000012293432B430B600B681A40AA4220D12B
:1009500023685B0706D5114A536812490B40E168CA
:100960000B435360FFF760FF0C4B5A6812090F23CB
:1009700013400D4AD35CD8400C4B1860032000F0A4
:10098000BDF8002070BD0120FCE70120FAE701203E
:10099000F8E70120F6E7C0460020024000100240C0
:1009A00088130000FFF8FFFF941D000808000020D6
:1009B000014B18687047C0460800002010B5FFF7CB
:1009C000F7FF044B5A68120A07231340024AD35C0C
:1009D000D84010BD001002408C1D000870B582B0D8
:1009E00004000368DB0339D53E4BDB69DB004BD4E5
:1009F0003C4BDA69802149050A43DA61DB690B4027
:100A00000193019B0125384B1B68DB053ED5354B17
:100A10001A6AC0239B00110019401A4215D063685E
:100A2000C022920013408B420FD02E4B1A6A2F49DE
:100A300011401E6A8020400230431862186A2C4E12
:100A4000304018621962D20734D4264A136A274903
:100A50000B4061680B431362012D3AD02368DB071A
:100A600006D5204A136B03218B43A1680B43136304
:100A700023689B0632D51B4A136B10218B43E16818
:100A80000B43136300202AE00025BCE7164A1168D7
:100A900080235B000B43136000F074F80600124BD8
:100AA0001B68DB05B3D400F06DF8801B6428F6D911
:100AB000032014E000F066F806000A4B1B6A9B074F
:100AC000C3D400F05FF8801B0A4B9842F5D903208D
:100AD00005E0D36908490B40D361BFE7002002B0AD
:100AE00070BDC0460010024000700040FFFCFFFFD8
:100AF000FFFFFEFF88130000FFFFFFEF10B50400AB
:100B00000F4B1978FA208000FFF7DAFA01000D4B3D
:100B10001868FFF7D5FA00F0A3F900280DD1032CCF
:100B200001D901200AE0013000222100404200F0FA
:100B300087F9054B1C60002000E0012010BDC04675
:100B400000000020080000200400002010B5064A24
:100B5000136810210B4313600320FFF7CFFFFFF74B
:100B6000FDFB002010BDC04600200240034A116872
:100B7000034B1B785B1813607047C04628000020A9
:100B800000000020014B18687047C0462800002074
:100B9000F0B583B0002356E086685F000324BC40B4
:100BA000A643CC68BC4034438460446894434E6898
:100BB0003609012232409A402243426053E0DE0867
:100BC0000836B600375805321A4092000F24944078
:100BD000A7430C69944022003A43325056E0022663
:100BE00000E00026A64034003C4302329200424E10
:100BF0009451424A9768EA433E00AE434C68E4028F
:100C000001D53E002E433D4CA660E7683E001640ED
:100C10004C68A40201D53E002E43384CE66067685C
:100C20003E0016404C68A40301D53E002E43334CD1
:100C30006660266832404C68E40301D52A003243DE
:100C40002E4C226001330C682200DA4051D0012280
:100C50009A40250015401442F4D04E6803243440D5
:100C6000013C012C98D94C6803222240032A08D069
:100C7000C4685E000322B24094438A68B2402243B3
:100C8000C2604C6803222240022A98D004685E00A9
:100C900003221700B740BC434F683A40B24022439A
:100CA00002604C68C02292021442CBD0144CA66958
:100CB00001221643A661A46922400192019A9A0872
:100CC000941CA4000C4EA75903241C40A4000F261A
:100CD000A640B7439026F605B04282D0094EB042F6
:100CE00005D0094EB04200D179E705267AE7012602
:100CF00078E703B0F0BDC0460000014000040140A9
:100D0000001002400004004800080048002A01D0FA
:100D1000816170478162FCE710B52123C35C022B1F
:100D200006D0042383631C330022C254012010BD6B
:100D3000026813680E218B43136001680A6801235F
:100D40009A430A60016CC26B1C008C4054602122E3
:100D500083541F330022C2540020E8E710B521233A
:100D6000C35C022B03D004238363012010BD0268FF
:100D700013680E218B43136001680A6801239A43AC
:100D80000A60016CC26B1C008C40546021228354A9
:100D90001F330022C254436B002B02D0984700201F
:100DA000E4E70020E2E7000070B5002811DB8308CB
:100DB000134DC0339B005C5903221040C000FC322D
:100DC00016008640B44389010A40824022435A51AA
:100DD00070BD0F230340083B9B0806339B00094A64
:100DE000944663445C6803221040C000FC32150046
:100DF0008540AC4389010A40824022435A60E7E7BC
:100E000000E100E000ED00E0013880235B0498423F
:100E10000FD2094A50600948036A1B021B0AC0210D
:100E200009060B430362002393600733136000201D
:100E300070470120FCE7C04610E000E000ED00E054
:100E400010B5FFF7B1FF10BD002805DB1F220240DF
:100E500001239340014A13607047C04600E100E05F
:100E600010B5FFF7D1FF10BD7047000010B5EFF3CC
:100E7000108C012282F3108801680B68124C234009
:100E80000B608CF31088EFF3108C82F310880168EC
:100E90008B6893438B608CF31088036E012B06D014
:100EA00080232022C25000230366836610BDEFF327
:100EB000108183F31088026813683234FF34A3432F
:100EC000136081F31088EBE7DFFEFFFF704710B57A
:100ED000EFF31081012383F3108802681368402424
:100EE000A343136081F310882023C3670023C366E4
:100EF000FFF7ECFF10BD704710B5406A00235A227F
:100F00008352083A8352FFF7F6FF10BD7047000086
:100F100070B504000268D36911689068AB4D2B422C
:100F200009D19D060FD58D060DD5A36E002B1DD0C2
:100F3000200098471AE001252E000640054216D1F0
:100F4000A34D294213D1256E012D00D192E0DD027F
:100F500002D5400200D527E11A0602D50A0600D5BF
:100F600029E15B0602D5490600D52BE170BDD80703
:100F700007D5C80505D501251562842022582A43C6
:100F800022509A0709D5002E07D02268022010624D
:100F90008230225804252A4322505A0709D5002EB0
:100FA00007D02268042010628030225802252A438C
:100FB00022501A070AD58A0601D4002E06D02268CC
:100FC00008251562842022582A4322501A050AD582
:100FD0004A0108D52268802000011062842022582E
:100FE00020252A4322508422A258002ABED09B06E4
:100FF00006D5890604D5A36E002B01D020009847A2
:101000008423E25823689B685B0602D4282313429A
:1010100029D02000FFF72AFF23689B685B061ED5B6
:10102000EFF31081012383F3108822689368402036
:101030008343936081F31088636F002B0BD0654A64
:101040005A63606FFFF78AFE002800D18EE7606F59
:10105000436B98478AE72000FFF74DFF86E72000A3
:10106000FFF749FF82E72000FFF745FF84230022B6
:10107000E2507BE7DD0600D469E7CD0600D466E7E1
:101080001023136223689B685B0652D5626F136856
:101090005B689BB2002B00D168E75821615A9942E6
:1010A00000D863E75A2163529369202B0BD10223A6
:1010B00063665633E15A0233E35AC91A89B22000F3
:1010C000FFF724FF52E7EFF31080012383F310882A
:1010D00021680A68404D2A400A6080F31088EFF3C7
:1010E000108083F3108821688A689A438A6080F3AD
:1010F0001088EFF3108083F3108821688A684235E6
:10110000FF35AA438A6080F3108880222021A150F5
:1011100000222266EFF3108183F31088226813689F
:1011200010208343136081F31088606FFFF7F4FD94
:10113000BDE75823E35A5A22A15A591A89B2A35A31
:101140009BB2002B00D111E7002900D10EE7EFF38D
:101150001085012383F31088206802681F4E3240F7
:10116000026085F31088EFF3108583F31088206800
:1011700082689A43826085F3108880222020A050E4
:1011800000222266A266EFF3108083F310882268A3
:1011900013681025AB43136080F310880223636645
:1011A0002000FFF7B3FEE1E680235B03136220001B
:1011B00000F02CFBDAE6E36E002B00D1D6E620002F
:1011C0009847D3E62000FFF782FECFE60F08000025
:1011D00020010004F90E0008FFFEFFFFDFFEFFFF05
:1011E00010B5040083680269134342691343C2695E
:1011F000134301680A684848024013430B602268A1
:10120000536846490B40E1680B435360A369226A67
:101210001A4321688B684248034013438B60414B5B
:101220001A6B03231340022B0AD005D8002B16D0CB
:10123000012B16D1033304E0032B14D1013B00E052
:101240000823E0698022120290420ED0042B58D06D
:1012500039D8002B3ED0022B33D133483EE0002357
:10126000EFE71023EDE71023EBE7042B26D007D898
:10127000002B09D0022B01D12B4809E001203CE0D2
:10128000082B05D0012038E0FFF798FB00283BD061
:10129000400061684B08C018FEF712FF0200103AC8
:1012A000224B9A4232D882B20F239A434008083B1D
:1012B000034013432268D36000201EE0FFF7B4FA16
:1012C000E4E7012019E0082B02D18020000205E0AC
:1012D000012012E0FFF772FB002819D061684B086B
:1012E0001818FEF7EDFE0200103A104B9A4211D882
:1012F00023680004000CD86000200023A366E36686
:1013000010BDFFF791FAE7E70020F6E70120F4E7C8
:101310000020F2E70120F0E7F369FFFFFFCFFFFFB6
:10132000FFF4FFFF0010024000127A00EFFF000000
:10133000436A1B0706D5026853682C490B40416B72
:101340000B435360436ADB0706D50268536828499C
:101350000B40816A0B435360436A9B0706D50268C2
:10136000536824490B40C16A0B435360436A5B07CF
:1013700006D50268536820490B40016B0B4353604C
:10138000436ADB0606D5026893681C490B40816BF3
:101390000B439360436A9B0606D50268936818491D
:1013A0000B40C16B0B439360436A5B060BD502682D
:1013B000536814490B40016C0B435360026C80234B
:1013C0005B039A420AD0436A1B0606D5026853683B
:1013D0000D490B40816C0B435360704702685368A2
:1013E0000A490B40416C0B435360ECE7FF7FFFFF62
:1013F000FFFFFDFFFFFFFEFFFFFFFBFFFFEFFFFF14
:10140000FFDFFFFFFFFFEFFFFFFFF7FFFFFF9FFF84
:10141000F8B5CE46474680B506000D001700994640
:10142000089B98463368DC692C40641B63425C412E
:10143000BC4233D143460133F4D0FFF7A3FB4B4604
:10144000C01A40452FD84346002B2ED0326813686F
:101450005B07E7D5802DE5D0402DE3D0D3691B078E
:1014600010D4D3691B05DDD580231B011362300026
:10147000FFF7FCFC84232022F2500C3B0022F254A4
:1014800003200CE0082414623000FFF7EFFC8423F3
:10149000F4500C3B0022F254012000E00020C0BCBC
:1014A000B946B046F8BD0320F9E70320F7E7F0B5E9
:1014B000C64600B582B004000D0090461E00C36F02
:1014C000202B62D1002965D0002A65D08268802354
:1014D0005B019A4204D10369002B01D1CB075DD493
:1014E00084230022E250633BE367FFF74BFB0700D6
:1014F00050234246E2520233E252A26880235B014B
:101500009A4202D0002398461AE02369002B02D0A9
:101510000023984614E0A846002511E02023E36745
:10152000032033E043461B882268DB05DB0D13856F
:1015300002239C46E0445223E25A013A92B2E2521C
:101540005223E35A9BB2002B0FD000963B0000229F
:1015500080212000FFF75CFF0028DFD1002DE1D0C3
:101560002A7823681A850135E5E700963B000022BA
:1015700040212000FFF74CFF002802D12023E36721
:1015800004E02023E367032000E0022002B080BCD7
:10159000B846F0BD0120F9E70120F7E70120F5E7A3
:1015A000F0B5C64600B584B004000E0015001F005B
:1015B0008023C358202B00D07CE0002900D17EE09E
:1015C000002A00D17DE0826880235B019A4205D128
:1015D0000369002B02D1CB0700D574E000238422DD
:1015E000A350043A2221A1502366FFF7CBFA80468C
:1015F0005823E5520233E552A368802252019342F8
:1016000008D0002B15D12269002A0ED15C32FF21AF
:10161000A15211E02269002A03D15C322B49A15268
:101620000AE05C22FF21A15206E05C227F21A15248
:1016300002E05C220021A1525C22A25A0392802285
:101640005201934201D0002517E02369002B01D0FD
:10165000002512E0350000260FE080232022E25012
:10166000032028E023689B8C039A13402B800235CB
:101670005A23E25A013A92B2E2525A23E35A9BB2F7
:10168000002B12D000974346002220212000FFF7B4
:10169000BFFE0028E1D1002EE4D023689B8C6A466F
:1016A000127B134033700136E2E780332022E25090
:1016B000002000E0022004B080BCB846F0BD01204C
:1016C000F9E70120F7E70120F5E7C046FF01000038
:1016D00030B583B0040084230022C250FFF752FAD1
:1016E000050023681B681B070FD423681B685B0772
:1016F00029D42023E3678022A35000232366636656
:10170000083AA354002003B030BD8021224B00933F
:101710000300002289032000FFF77AFE0028E4D0AE
:10172000EFF31081012383F310882268136880206F
:101730008343136081F310882023E367583300222A
:10174000E2547D38DFE78021134B00932B00002209
:10175000C9032000FFF75CFE0028CAD0EFF3108019
:10176000012282F3108821680B680C4D2B400B601E
:1017700080F31088EFF3108082F3108821688B6863
:1017800093438B6080F3108880231F32E250083B24
:101790000022E2540320B6E7FFFFFF01DFFEFFFF58
:1017A00010B5041E2ED0C36F002B21D02423E36775
:1017B0002268136801218B431360636A002B1DD1DB
:1017C0002000FFF70DFD012811D0226853680E4953
:1017D0000B405360226893682A218B4393602268F0
:1017E000136829390B4313602000FFF771FF10BD08
:1017F00078330022C25400F051F8D7E72000FFF7F9
:1018000097FDDDE70120F2E7FFB7FFFF704700001B
:1018100010B586B01422002101A800F06EFA0F4B1B
:101820005A69802189020A435A615B690B4000931F
:10183000009B9024E4050022C0212000FFF766FAF7
:10184000C0230193BF3B029300230393049301A998
:101850002000FFF79DF906B010BDC0460010024001
:1018600010B50C480C4B0360E1235B02436000237E
:101870008360C36003610C2242618361C3610362C0
:101880004362FFF78DFF002800D110BDFEF7F0FC8A
:10189000FBE7C0462C0000200038014010B588B09E
:1018A00004001422002103A800F027FA2268174B35
:1018B0009A4201D008B010BD154B9A698021C90128
:1018C0000A439A619A690A400192019A5A698021F1
:1018D00089020A435A615B690B400293029B0C2305
:1018E00003930A3B049301330693023B0793902032
:1018F00003A9C005FFF74CF9002200211B20FFF7C8
:101900009FFA1B20FFF7A0FAD4E7C0460038014039
:101910000010024000B585B00C22002101A800F0A3
:10192000ECF91848184B0360002343608360C360E0
:101930000122026104214161037643768276C376F7
:10194000C221FF31C16103629E39FF394354826273
:1019500000F04CF800280ED10023019380235B0196
:10196000029305230393074801A900F001F9002819
:1019700004D105B000BDFEF77BFCEDE7FEF778FC77
:10198000F7E7C046B40000200024014010B588B03D
:1019900004001422002103A800F0AFF92268114BC3
:1019A0009A4201D008B010BD0F4B9A69802189007E
:1019B0000A439A619A690A400192019A5A69802100
:1019C00089020A435A615B690B400293029B01231F
:1019D000039302330493902003A9C005FFF7D8F8BE
:1019E000E0E7C046002401400010024070B5041E2C
:1019F00000D1B4E0836B002B00D180E0A36BDB0649
:101A000000D5A6E023689A6804210800104011421E
:101A100000D09EE0A26B53490A400631FF310A43D1
:101A2000A263996803220A40012A6ED0DA6818215D
:101A30008A43A1680A43DA60226813699B009B0805
:101A400061680B4313612268D36847490B40D36038
:101A5000237E9B03627ED2031343A17E4A0313437A
:101A6000A26A012A58D0802252011343E26813432C
:101A70002269022A52D003432422A25C520013435B
:101A8000E27E012A4CD0E269C221FF318A4202D0B3
:101A9000216A0A4313432168CA681A43CA60E26A8A
:101AA000802149058A420DD0012A0BD0022A09D093
:101AB000032A07D0042A05D0052A03D0062A01D01C
:101AC000072A0AD1206841690722914341612068B1
:101AD0004169E56A2A400A4342612268D268234983
:101AE0000A409A422BD0A36B12229343023A13432B
:101AF000A363E36B0F3A1343E36301202EE0C36358
:101B000034228354FFF742FF78E71A68D2079AD449
:101B1000DA68120497D489E70200A6E70420AAE74E
:101B2000002903D1802252021343ACE7A26B20218B
:101B30000A43A263E26B1F390A43E263A3E700236F
:101B4000E363A36B03229343023A1343A36300208E
:101B500004E0A36B10221343A363012070BD012096
:101B6000FCE7C046FDFEFFFF1902FEFFE7FF3F83D3
:101B700030B583B00400002301933433C35C012BE0
:101B800000D181E034230122C254026893685B07CC
:101B90006CD448683D4B98424DD0936A0D68012043
:101BA000A84003439362E36A072B27D8002B10D188
:101BB00088682268556907232B40984209D05069EC
:101BC000072398435061206842698D682B40134376
:101BD00043610B681A00103A022A51D82C4A126845
:101BE000102B13D0112B0ED080235B041343284AF3
:101BF00013600B68102B0CD000203CE080225205B3
:101C00009342E6D0D4E78023DB03EFE780231B0475
:101C1000ECE7204B18682049FEF752FA83001B18A6
:101C20005B00019302E0019B013B0193019B002BB0
:101C3000F9D100201FE0936A0D680120A84083437A
:101C400093620B681A00103A022A1BD8104A1268D5
:101C5000102B09D0112B05D0104B13400C4A1360E8
:101C6000002008E00E4BF8E70E4BF6E7836B2022CE
:101C700013438363012034230022E25403B030BDB8
:101C80000020F8E70020F6E70220F7E70110000047
:101C9000082701400800002040420F00FFFFFFFE20
:101CA000FFFFBFFFFFFF7FFF0D488546FFF7DCF812
:101CB0000C480D490D4A002302E0D458C4500433A7
:101CC000C4188C42F9D30A4A0A4C002301E013607D
:101CD0000432A242FBD300F019F8FEF70DFBFEE739
:101CE00000100020000000200C000020AC1D0008A7
:101CF0000C000020F4000020FEE70300821893424D
:101D000000D1704719700133F9E7000070B5002663
:101D10000C4C0D4D641BA410A64209D1002600F006
:101D200019F80A4C0A4D641BA410A64205D170BDD7
:101D3000B300EB5898470136EEE7B300EB589847ED
:101D40000136F2E7A41D0008A41D0008A81D000824
:101D5000A41D0008F8B5C046F8BC08BC9E467047F4
:0C1D6000F8B5C046F8BC08BC9E467047B1
:101D6C000102030405060708090A0B0C0D0E0F10DF
:101D7C0002030405060708090A0B0C0D0E0F1010C0
:101D8C00000000000102030400000000000000003D
:081D9C00010203040607080917
:041DA4004D020008E4
:041DA800210200080C
:0C1DAC00010000000400000000127A009A
:0400000508001CA92A
:00000001FF
